{
  "contractName": "ArtMarketplace",
  "abi": [
    {
      "inputs": [
        {
          "internalType": "contract ArtToken",
          "name": "_token",
          "type": "address"
        }
      ],
      "stateMutability": "nonpayable",
      "type": "constructor"
    },
    {
      "anonymous": false,
      "inputs": [
        {
          "indexed": false,
          "internalType": "uint256",
          "name": "id",
          "type": "uint256"
        },
        {
          "indexed": false,
          "internalType": "uint256",
          "name": "tokenId",
          "type": "uint256"
        },
        {
          "indexed": false,
          "internalType": "uint256",
          "name": "price",
          "type": "uint256"
        }
      ],
      "name": "ItemAddedForSale",
      "type": "event"
    },
    {
      "anonymous": false,
      "inputs": [
        {
          "indexed": false,
          "internalType": "uint256",
          "name": "id",
          "type": "uint256"
        },
        {
          "indexed": false,
          "internalType": "address",
          "name": "buyer",
          "type": "address"
        },
        {
          "indexed": false,
          "internalType": "uint256",
          "name": "price",
          "type": "uint256"
        }
      ],
      "name": "ItemSold",
      "type": "event"
    },
    {
      "inputs": [
        {
          "internalType": "uint256",
          "name": "",
          "type": "uint256"
        }
      ],
      "name": "activeItems",
      "outputs": [
        {
          "internalType": "bool",
          "name": "",
          "type": "bool"
        }
      ],
      "stateMutability": "view",
      "type": "function",
      "constant": true
    },
    {
      "inputs": [
        {
          "internalType": "uint256",
          "name": "",
          "type": "uint256"
        }
      ],
      "name": "itemsForSale",
      "outputs": [
        {
          "internalType": "uint256",
          "name": "id",
          "type": "uint256"
        },
        {
          "internalType": "uint256",
          "name": "tokenId",
          "type": "uint256"
        },
        {
          "internalType": "address payable",
          "name": "seller",
          "type": "address"
        },
        {
          "internalType": "uint256",
          "name": "price",
          "type": "uint256"
        },
        {
          "internalType": "bool",
          "name": "isSold",
          "type": "bool"
        }
      ],
      "stateMutability": "view",
      "type": "function",
      "constant": true
    },
    {
      "inputs": [
        {
          "internalType": "uint256",
          "name": "tokenId",
          "type": "uint256"
        },
        {
          "internalType": "uint256",
          "name": "price",
          "type": "uint256"
        }
      ],
      "name": "putItemForSale",
      "outputs": [
        {
          "internalType": "uint256",
          "name": "",
          "type": "uint256"
        }
      ],
      "stateMutability": "nonpayable",
      "type": "function"
    },
    {
      "inputs": [
        {
          "internalType": "uint256",
          "name": "id",
          "type": "uint256"
        }
      ],
      "name": "buyItem",
      "outputs": [],
      "stateMutability": "payable",
      "type": "function",
      "payable": true
    },
    {
      "inputs": [],
      "name": "totalItemsForSale",
      "outputs": [
        {
          "internalType": "uint256",
          "name": "",
          "type": "uint256"
        }
      ],
      "stateMutability": "view",
      "type": "function",
      "constant": true
    }
  ],
  "bytecode": "0x60806040523480156200001157600080fd5b50604051620013c3380380620013c3833981810160405281019062000037919062000095565b806000806101000a81548173ffffffffffffffffffffffffffffffffffffffff021916908373ffffffffffffffffffffffffffffffffffffffff1602179055505062000123565b6000815190506200008f8162000109565b92915050565b600060208284031215620000a857600080fd5b6000620000b8848285016200007e565b91505092915050565b6000620000ce82620000e9565b9050919050565b6000620000e282620000c1565b9050919050565b600073ffffffffffffffffffffffffffffffffffffffff82169050919050565b6200011481620000d5565b81146200012057600080fd5b50565b61129080620001336000396000f3fe60806040526004361061004a5760003560e01c8063092d0afc1461004f5780639c318c7b14610090578063e7fb74c7146100cd578063ec8120c9146100e9578063f4f3576414610114575b600080fd5b34801561005b57600080fd5b5061007660048036038101906100719190610d6d565b610151565b604051610087959493929190611101565b60405180910390f35b34801561009c57600080fd5b506100b760048036038101906100b29190610d6d565b6101c4565b6040516100c49190610fd4565b60405180910390f35b6100e760048036038101906100e29190610d6d565b6101e4565b005b3480156100f557600080fd5b506100fe61090d565b60405161010b91906110af565b60405180910390f35b34801561012057600080fd5b5061013b60048036038101906101369190610d96565b61091a565b60405161014891906110af565b60405180910390f35b6001818154811061016157600080fd5b90600052602060002090600502016000915090508060000154908060010154908060020160009054906101000a900473ffffffffffffffffffffffffffffffffffffffff16908060030154908060040160009054906101000a900460ff16905085565b60026020528060005260406000206000915054906101000a900460ff1681565b80600180549050811080156102435750806001828154811061022f577f4e487b7100000000000000000000000000000000000000000000000000000000600052603260045260246000fd5b906000526020600020906005020160000154145b610282576040517f08c379a00000000000000000000000000000000000000000000000000000000081526004016102799061104f565b60405180910390fd5b81600181815481106102bd577f4e487b7100000000000000000000000000000000000000000000000000000000600052603260045260246000fd5b906000526020600020906005020160040160009054906101000a900460ff161561031c576040517f08c379a00000000000000000000000000000000000000000000000000000000081526004016103139061108f565b60405180910390fd5b60018381548110610356577f4e487b7100000000000000000000000000000000000000000000000000000000600052603260045260246000fd5b9060005260206000209060050201600101543073ffffffffffffffffffffffffffffffffffffffff1660008054906101000a900473ffffffffffffffffffffffffffffffffffffffff1673ffffffffffffffffffffffffffffffffffffffff1663081812fc836040518263ffffffff1660e01b81526004016103d891906110af565b60206040518083038186803b1580156103f057600080fd5b505afa158015610404573d6000803e3d6000fd5b505050506040513d601f19601f820116820180604052508101906104289190610d44565b73ffffffffffffffffffffffffffffffffffffffff161461047e576040517f08c379a00000000000000000000000000000000000000000000000000000000081526004016104759061100f565b60405180910390fd5b600184815481106104b8577f4e487b7100000000000000000000000000000000000000000000000000000000600052603260045260246000fd5b90600052602060002090600502016003015434101561050c576040517f08c379a000000000000000000000000000000000000000000000000000000000815260040161050390610fef565b60405180910390fd5b60018481548110610546577f4e487b7100000000000000000000000000000000000000000000000000000000600052603260045260246000fd5b906000526020600020906005020160020160009054906101000a900473ffffffffffffffffffffffffffffffffffffffff1673ffffffffffffffffffffffffffffffffffffffff163373ffffffffffffffffffffffffffffffffffffffff1614156105b057600080fd5b60018085815481106105eb577f4e487b7100000000000000000000000000000000000000000000000000000000600052603260045260246000fd5b906000526020600020906005020160040160006101000a81548160ff02191690831515021790555060006002600060018781548110610653577f4e487b7100000000000000000000000000000000000000000000000000000000600052603260045260246000fd5b906000526020600020906005020160010154815260200190815260200160002060006101000a81548160ff02191690831515021790555060008054906101000a900473ffffffffffffffffffffffffffffffffffffffff1673ffffffffffffffffffffffffffffffffffffffff166342842e0e60018681548110610700577f4e487b7100000000000000000000000000000000000000000000000000000000600052603260045260246000fd5b906000526020600020906005020160020160009054906101000a900473ffffffffffffffffffffffffffffffffffffffff16336001888154811061076d577f4e487b7100000000000000000000000000000000000000000000000000000000600052603260045260246000fd5b9060005260206000209060050201600101546040518463ffffffff1660e01b815260040161079d93929190610f9d565b600060405180830381600087803b1580156107b757600080fd5b505af11580156107cb573d6000803e3d6000fd5b5050505060018481548110610809577f4e487b7100000000000000000000000000000000000000000000000000000000600052603260045260246000fd5b906000526020600020906005020160020160009054906101000a900473ffffffffffffffffffffffffffffffffffffffff1673ffffffffffffffffffffffffffffffffffffffff166108fc349081150290604051600060405180830381858888f19350505050158015610880573d6000803e3d6000fd5b507fa574c741071bb18f51fa88c17aeefec514bebf670ca22a3736fba6504ecbb7638433600187815481106108de577f4e487b7100000000000000000000000000000000000000000000000000000000600052603260045260246000fd5b9060005260206000209060050201600301546040516108ff939291906110ca565b60405180910390a150505050565b6000600180549050905090565b6000823373ffffffffffffffffffffffffffffffffffffffff1660008054906101000a900473ffffffffffffffffffffffffffffffffffffffff1673ffffffffffffffffffffffffffffffffffffffff16636352211e836040518263ffffffff1660e01b815260040161098d91906110af565b60206040518083038186803b1580156109a557600080fd5b505afa1580156109b9573d6000803e3d6000fd5b505050506040513d601f19601f820116820180604052508101906109dd9190610d44565b73ffffffffffffffffffffffffffffffffffffffff1614610a33576040517f08c379a0000000000000000000000000000000000000000000000000000000008152600401610a2a9061102f565b60405180910390fd5b833073ffffffffffffffffffffffffffffffffffffffff1660008054906101000a900473ffffffffffffffffffffffffffffffffffffffff1673ffffffffffffffffffffffffffffffffffffffff1663081812fc836040518263ffffffff1660e01b8152600401610aa491906110af565b60206040518083038186803b158015610abc57600080fd5b505afa158015610ad0573d6000803e3d6000fd5b505050506040513d601f19601f82011682018060405250810190610af49190610d44565b73ffffffffffffffffffffffffffffffffffffffff1614610b4a576040517f08c379a0000000000000000000000000000000000000000000000000000000008152600401610b419061100f565b60405180910390fd5b6002600086815260200190815260200160002060009054906101000a900460ff1615610bab576040517f08c379a0000000000000000000000000000000000000000000000000000000008152600401610ba29061106f565b60405180910390fd5b6000600180549050905060016040518060a001604052808381526020018881526020013373ffffffffffffffffffffffffffffffffffffffff168152602001878152602001600015158152509080600181540180825580915050600190039060005260206000209060050201600090919091909150600082015181600001556020820151816001015560408201518160020160006101000a81548173ffffffffffffffffffffffffffffffffffffffff021916908373ffffffffffffffffffffffffffffffffffffffff1602179055506060820151816003015560808201518160040160006101000a81548160ff021916908315150217905550505060016002600088815260200190815260200160002060006101000a81548160ff0219169083151502179055507f079cec1c6d5c9d32a4959759d148ecb384ab7bef5d509b4459dc250a42799254818787604051610d0693929190611154565b60405180910390a180935050505092915050565b600081519050610d298161122c565b92915050565b600081359050610d3e81611243565b92915050565b600060208284031215610d5657600080fd5b6000610d6484828501610d1a565b91505092915050565b600060208284031215610d7f57600080fd5b6000610d8d84828501610d2f565b91505092915050565b60008060408385031215610da957600080fd5b6000610db785828601610d2f565b9250506020610dc885828601610d2f565b9150509250929050565b610ddb816111f6565b82525050565b610dea816111ae565b82525050565b610df98161119c565b82525050565b610e08816111c0565b82525050565b6000610e1b60158361118b565b91507f4e6f7420656e6f7567682066756e64732073656e7400000000000000000000006000830152602082019050919050565b6000610e5b60168361118b565b91507f4d61726b6574206973206e6f7420617070726f766564000000000000000000006000830152602082019050919050565b6000610e9b601c8361118b565b91507f53656e64657220646f6573206e6f74206f776e20746865206974656d000000006000830152602082019050919050565b6000610edb60138361118b565b91507f436f756c64206e6f742066696e64206974656d000000000000000000000000006000830152602082019050919050565b6000610f1b601b8361118b565b91507f4974656d20697320616c726561647920757020666f722073616c6500000000006000830152602082019050919050565b6000610f5b60148361118b565b91507f4974656d20697320616c726561647920736f6c640000000000000000000000006000830152602082019050919050565b610f97816111ec565b82525050565b6000606082019050610fb26000830186610dd2565b610fbf6020830185610df0565b610fcc6040830184610f8e565b949350505050565b6000602082019050610fe96000830184610dff565b92915050565b6000602082019050818103600083015261100881610e0e565b9050919050565b6000602082019050818103600083015261102881610e4e565b9050919050565b6000602082019050818103600083015261104881610e8e565b9050919050565b6000602082019050818103600083015261106881610ece565b9050919050565b6000602082019050818103600083015261108881610f0e565b9050919050565b600060208201905081810360008301526110a881610f4e565b9050919050565b60006020820190506110c46000830184610f8e565b92915050565b60006060820190506110df6000830186610f8e565b6110ec6020830185610df0565b6110f96040830184610f8e565b949350505050565b600060a0820190506111166000830188610f8e565b6111236020830187610f8e565b6111306040830186610de1565b61113d6060830185610f8e565b61114a6080830184610dff565b9695505050505050565b60006060820190506111696000830186610f8e565b6111766020830185610f8e565b6111836040830184610f8e565b949350505050565b600082825260208201905092915050565b60006111a7826111cc565b9050919050565b60006111b9826111cc565b9050919050565b60008115159050919050565b600073ffffffffffffffffffffffffffffffffffffffff82169050919050565b6000819050919050565b600061120182611208565b9050919050565b60006112138261121a565b9050919050565b6000611225826111cc565b9050919050565b6112358161119c565b811461124057600080fd5b50565b61124c816111ec565b811461125757600080fd5b5056fea2646970667358221220d7a7c09bddf2f0adf3c3aaeb793530b0a316a7a1f516c07406b1b62493973f1364736f6c63430008000033",
  "immutableReferences": {},
  "source": "// SPDX-License-Identifier: MIT\r\npragma solidity ^0.8.0;\r\n\r\nimport \"./ArtToken.sol\";\r\n\r\ncontract ArtMarketplace {\r\n  ArtToken private token;\r\n\r\n  struct ItemForSale {\r\n    uint256 id;\r\n    uint256 tokenId;\r\n    address payable seller;\r\n    uint256 price;\r\n    bool isSold;\r\n  }\r\n\r\n  ItemForSale[] public itemsForSale;\r\n  mapping(uint256 => bool) public activeItems;\r\n\r\n  event ItemAddedForSale(uint256 id, uint256 tokenId, uint256 price);\r\n  event ItemSold(uint256 id, address buyer, uint256 price);\r\n\r\n  constructor(ArtToken _token) {\r\n    token = _token;\r\n  }\r\n\r\n  modifier onlyItemOwner(uint256 tokenId) {\r\n    require(token.ownerOf(tokenId) == msg.sender, \"Sender does not own the item\");\r\n    _;\r\n  }\r\n\r\n  modifier hasTransferApproval(uint256 tokenId) {\r\n    require(token.getApproved(tokenId) == address(this), \"Market is not approved\");\r\n    _;\r\n  }\r\n\r\n  modifier itemExists(uint256 id) {\r\n    require(id < itemsForSale.length && itemsForSale[id].id == id, \"Could not find item\");\r\n    _;\r\n  }\r\n\r\n  modifier isForSale(uint256 id) {\r\n    require(!itemsForSale[id].isSold, \"Item is already sold\");\r\n    _;\r\n  }\r\n\r\n  function putItemForSale(uint256 tokenId, uint256 price) external onlyItemOwner(tokenId) hasTransferApproval(tokenId) returns (uint256) {\r\n    require(!activeItems[tokenId], \"Item is already up for sale\");\r\n\r\n    uint256 newItemId = itemsForSale.length;\r\n    itemsForSale.push(ItemForSale({\r\n      id: newItemId,\r\n      tokenId: tokenId,\r\n      seller: payable(msg.sender),\r\n      price: price,\r\n      isSold: false\r\n    }));\r\n    activeItems[tokenId] = true;\r\n\r\n    emit ItemAddedForSale(newItemId, tokenId, price);\r\n    return newItemId;\r\n  }\r\n\r\n  function buyItem(uint256 id) external itemExists(id) isForSale(id) hasTransferApproval(itemsForSale[id].tokenId) payable {\r\n    require(msg.value >= itemsForSale[id].price, \"Not enough funds sent\");\r\n    require(msg.sender != itemsForSale[id].seller);\r\n\r\n    itemsForSale[id].isSold = true;\r\n    activeItems[itemsForSale[id].tokenId] = false;\r\n    token.safeTransferFrom(itemsForSale[id].seller, msg.sender, itemsForSale[id].tokenId);\r\n    itemsForSale[id].seller.transfer(msg.value);\r\n\r\n    emit ItemSold(id, msg.sender, itemsForSale[id].price);\r\n  }\r\n\r\n  function totalItemsForSale() external view returns (uint256) {\r\n    return itemsForSale.length;\r\n  }\r\n}\r\n",
  "sourcePath": "D:\\Blue chip technologies\\Blockchain dev intern\\Task_8\\NFT-Marketplace\\contracts\\ArtMarketplace.sol",
  "compiler": {
    "name": "solc",
    "version": "0.8.0+commit.c7dfd78e.Emscripten.clang"
  },
  "schemaVersion": "3.4.14",
  "updatedAt": "2023-07-11T09:42:39.662Z",
  "networkType": "ethereum",
  "devdoc": {
    "kind": "dev",
    "methods": {},
    "version": 1
  },
  "userdoc": {
    "kind": "user",
    "methods": {},
    "version": 1
  }
}